{
  "_format": "hh-sol-artifact-1",
  "contractName": "StudentSocietyDAO",
  "sourceName": "contracts/StudentSocietyDAO.sol",
  "abi": [
    {
      "inputs": [],
      "stateMutability": "nonpayable",
      "type": "constructor"
    },
    {
      "anonymous": false,
      "inputs": [
        {
          "indexed": false,
          "internalType": "address",
          "name": "who",
          "type": "address"
        }
      ],
      "name": "Approve",
      "type": "event"
    },
    {
      "anonymous": false,
      "inputs": [
        {
          "indexed": false,
          "internalType": "address",
          "name": "who",
          "type": "address"
        }
      ],
      "name": "Disapprove",
      "type": "event"
    },
    {
      "anonymous": false,
      "inputs": [
        {
          "indexed": false,
          "internalType": "string",
          "name": "",
          "type": "string"
        }
      ],
      "name": "Log",
      "type": "event"
    },
    {
      "anonymous": false,
      "inputs": [
        {
          "indexed": false,
          "internalType": "uint256",
          "name": "",
          "type": "uint256"
        }
      ],
      "name": "Log",
      "type": "event"
    },
    {
      "anonymous": false,
      "inputs": [
        {
          "indexed": false,
          "internalType": "uint32",
          "name": "proposalIndex",
          "type": "uint32"
        }
      ],
      "name": "ProposalInitiated",
      "type": "event"
    },
    {
      "inputs": [],
      "name": "CREATE_AMOUNT",
      "outputs": [
        {
          "internalType": "uint256",
          "name": "",
          "type": "uint256"
        }
      ],
      "stateMutability": "view",
      "type": "function"
    },
    {
      "inputs": [],
      "name": "VOTE_AMOUNT",
      "outputs": [
        {
          "internalType": "uint256",
          "name": "",
          "type": "uint256"
        }
      ],
      "stateMutability": "view",
      "type": "function"
    },
    {
      "inputs": [],
      "name": "WIN_AMOUNT",
      "outputs": [
        {
          "internalType": "uint256",
          "name": "",
          "type": "uint256"
        }
      ],
      "stateMutability": "view",
      "type": "function"
    },
    {
      "inputs": [
        {
          "internalType": "uint256",
          "name": "pro_index",
          "type": "uint256"
        }
      ],
      "name": "approve",
      "outputs": [],
      "stateMutability": "nonpayable",
      "type": "function"
    },
    {
      "inputs": [
        {
          "internalType": "string",
          "name": "pro_name",
          "type": "string"
        },
        {
          "internalType": "string",
          "name": "pro_con",
          "type": "string"
        },
        {
          "internalType": "uint256",
          "name": "newduration",
          "type": "uint256"
        }
      ],
      "name": "createproposal",
      "outputs": [],
      "stateMutability": "nonpayable",
      "type": "function"
    },
    {
      "inputs": [
        {
          "internalType": "uint256",
          "name": "pro_index",
          "type": "uint256"
        }
      ],
      "name": "disapprove",
      "outputs": [],
      "stateMutability": "nonpayable",
      "type": "function"
    },
    {
      "inputs": [],
      "name": "endproposal",
      "outputs": [],
      "stateMutability": "nonpayable",
      "type": "function"
    },
    {
      "inputs": [
        {
          "internalType": "uint256",
          "name": "pro_index",
          "type": "uint256"
        }
      ],
      "name": "getAgree",
      "outputs": [
        {
          "internalType": "uint256",
          "name": "num",
          "type": "uint256"
        }
      ],
      "stateMutability": "view",
      "type": "function"
    },
    {
      "inputs": [
        {
          "internalType": "uint256",
          "name": "pro_index",
          "type": "uint256"
        }
      ],
      "name": "getDisagree",
      "outputs": [
        {
          "internalType": "uint256",
          "name": "num",
          "type": "uint256"
        }
      ],
      "stateMutability": "view",
      "type": "function"
    },
    {
      "inputs": [],
      "name": "getOldProposals",
      "outputs": [
        {
          "components": [
            {
              "internalType": "uint32",
              "name": "index",
              "type": "uint32"
            },
            {
              "internalType": "address",
              "name": "proposer",
              "type": "address"
            },
            {
              "internalType": "uint256",
              "name": "startTime",
              "type": "uint256"
            },
            {
              "internalType": "uint256",
              "name": "duration",
              "type": "uint256"
            },
            {
              "internalType": "string",
              "name": "name",
              "type": "string"
            },
            {
              "internalType": "string",
              "name": "content",
              "type": "string"
            },
            {
              "internalType": "uint256",
              "name": "agree",
              "type": "uint256"
            },
            {
              "internalType": "uint256",
              "name": "disagree",
              "type": "uint256"
            },
            {
              "internalType": "bool",
              "name": "state",
              "type": "bool"
            }
          ],
          "internalType": "struct StudentSocietyDAO.Proposal[]",
          "name": "",
          "type": "tuple[]"
        }
      ],
      "stateMutability": "view",
      "type": "function"
    },
    {
      "inputs": [],
      "name": "getProposals",
      "outputs": [
        {
          "components": [
            {
              "internalType": "uint32",
              "name": "index",
              "type": "uint32"
            },
            {
              "internalType": "address",
              "name": "proposer",
              "type": "address"
            },
            {
              "internalType": "uint256",
              "name": "startTime",
              "type": "uint256"
            },
            {
              "internalType": "uint256",
              "name": "duration",
              "type": "uint256"
            },
            {
              "internalType": "string",
              "name": "name",
              "type": "string"
            },
            {
              "internalType": "string",
              "name": "content",
              "type": "string"
            },
            {
              "internalType": "uint256",
              "name": "agree",
              "type": "uint256"
            },
            {
              "internalType": "uint256",
              "name": "disagree",
              "type": "uint256"
            },
            {
              "internalType": "bool",
              "name": "state",
              "type": "bool"
            }
          ],
          "internalType": "struct StudentSocietyDAO.Proposal[]",
          "name": "",
          "type": "tuple[]"
        }
      ],
      "stateMutability": "view",
      "type": "function"
    },
    {
      "inputs": [],
      "name": "my721",
      "outputs": [
        {
          "internalType": "contract MyERC721",
          "name": "",
          "type": "address"
        }
      ],
      "stateMutability": "view",
      "type": "function"
    },
    {
      "inputs": [
        {
          "internalType": "uint256",
          "name": "",
          "type": "uint256"
        }
      ],
      "name": "pros",
      "outputs": [
        {
          "internalType": "uint32",
          "name": "index",
          "type": "uint32"
        },
        {
          "internalType": "address",
          "name": "proposer",
          "type": "address"
        },
        {
          "internalType": "uint256",
          "name": "startTime",
          "type": "uint256"
        },
        {
          "internalType": "uint256",
          "name": "duration",
          "type": "uint256"
        },
        {
          "internalType": "string",
          "name": "name",
          "type": "string"
        },
        {
          "internalType": "string",
          "name": "content",
          "type": "string"
        },
        {
          "internalType": "uint256",
          "name": "agree",
          "type": "uint256"
        },
        {
          "internalType": "uint256",
          "name": "disagree",
          "type": "uint256"
        },
        {
          "internalType": "bool",
          "name": "state",
          "type": "bool"
        }
      ],
      "stateMutability": "view",
      "type": "function"
    },
    {
      "inputs": [],
      "name": "studentERC20",
      "outputs": [
        {
          "internalType": "contract MyERC20",
          "name": "",
          "type": "address"
        }
      ],
      "stateMutability": "view",
      "type": "function"
    },
    {
      "inputs": [
        {
          "internalType": "address",
          "name": "",
          "type": "address"
        }
      ],
      "name": "voters",
      "outputs": [
        {
          "internalType": "uint256",
          "name": "vote",
          "type": "uint256"
        },
        {
          "internalType": "uint256",
          "name": "count",
          "type": "uint256"
        }
      ],
      "stateMutability": "view",
      "type": "function"
    }
  ],
  "bytecode": "0x60806040523480156200001157600080fd5b50604051620000209062000106565b6200002b90620001d3565b604051809103906000f08015801562000048573d6000803e3d6000fd5b50600260006101000a81548173ffffffffffffffffffffffffffffffffffffffff021916908373ffffffffffffffffffffffffffffffffffffffff160217905550604051620000979062000114565b620000a290620002aa565b604051809103906000f080158015620000bf573d6000803e3d6000fd5b50600360006101000a81548173ffffffffffffffffffffffffffffffffffffffff021916908373ffffffffffffffffffffffffffffffffffffffff160217905550620002e1565b611c6e80620028aa83390190565b612909806200451883390190565b600082825260208201905092915050565b7f47726f7570546f6b656e00000000000000000000000000000000000000000000600082015250565b60006200016b600a8362000122565b9150620001788262000133565b602082019050919050565b7f47726f7570546f6b656e53796d626f6c00000000000000000000000000000000600082015250565b6000620001bb60108362000122565b9150620001c88262000183565b602082019050919050565b60006040820190508181036000830152620001ee816200015c565b905081810360208301526200020381620001ac565b9050919050565b7f47726f7570373231000000000000000000000000000000000000000000000000600082015250565b60006200024260088362000122565b91506200024f826200020a565b602082019050919050565b7f47726f757037323153796d626f6c000000000000000000000000000000000000600082015250565b600062000292600e8362000122565b91506200029f826200025a565b602082019050919050565b60006040820190508181036000830152620002c58162000233565b90508181036020830152620002da8162000283565b9050919050565b6125b980620002f16000396000f3fe608060405234801561001057600080fd5b50600436106100f55760003560e01c8063a249ee5e11610097578063c517377711610066578063c517377714610269578063c7527d7514610299578063ca8ef89f146102b7578063f97944e0146102d5576100f5565b8063a249ee5e146101c6578063a3ec138d146101e4578063b48c118014610215578063b759f9541461024d576100f5565b806362564c48116100d357806362564c48146101645780636848146b146101825780636c3fbb2d1461018c5780638008df4f146101aa576100f5565b806306c9e749146100fa5780632231fccf146101185780635cf1b9df14610148575b600080fd5b6101026102f3565b60405161010f9190611a41565b60405180910390f35b610132600480360381019061012d9190611a9c565b6102f8565b60405161013f9190611a41565b60405180910390f35b610162600480360381019061015d9190611c0f565b610327565b005b61016c6105ae565b6040516101799190611f3a565b60405180910390f35b61018a610867565b005b610194610e1f565b6040516101a19190611fbb565b60405180910390f35b6101c460048036038101906101bf9190611a9c565b610e45565b005b6101ce6110e3565b6040516101db9190611f3a565b60405180910390f35b6101fe60048036038101906101f99190612002565b61144f565b60405161020c92919061202f565b60405180910390f35b61022f600480360381019061022a9190611a9c565b611473565b604051610244999897969594939291906120cf565b60405180910390f35b61026760048036038101906102629190611a9c565b61161e565b005b610283600480360381019061027e9190611a9c565b6118bc565b6040516102909190611a41565b60405180910390f35b6102a16118eb565b6040516102ae919061218b565b60405180910390f35b6102bf611911565b6040516102cc9190611a41565b60405180910390f35b6102dd611916565b6040516102ea9190611a41565b60405180910390f35b600f81565b60006001828154811061030e5761030d6121a6565b5b9060005260206000209060080201600601549050919050565b600260009054906101000a900473ffffffffffffffffffffffffffffffffffffffff1673ffffffffffffffffffffffffffffffffffffffff166323b872dd3330600a6040518463ffffffff1660e01b8152600401610387939291906121d5565b602060405180830381600087803b1580156103a157600080fd5b505af11580156103b5573d6000803e3d6000fd5b505050506040513d601f19601f820116820180604052508101906103d99190612238565b50600160405180610120016040528060008054906101000a900463ffffffff1663ffffffff1681526020013373ffffffffffffffffffffffffffffffffffffffff168152602001428152602001838152602001858152602001848152602001600081526020016000815260200160001515815250908060018154018082558091505060019003906000526020600020906008020160009091909190915060008201518160000160006101000a81548163ffffffff021916908363ffffffff16021790555060208201518160000160046101000a81548173ffffffffffffffffffffffffffffffffffffffff021916908373ffffffffffffffffffffffffffffffffffffffff1602179055506040820151816001015560608201518160020155608082015181600301908051906020019061051492919061191b565b5060a082015181600401908051906020019061053192919061191b565b5060c0820151816005015560e082015181600601556101008201518160070160006101000a81548160ff021916908315150217905550505060008081819054906101000a900463ffffffff168092919061058a90612294565b91906101000a81548163ffffffff021916908363ffffffff16021790555050505050565b6060600060018054905067ffffffffffffffff8111156105d1576105d0611ae4565b5b60405190808252806020026020018201604052801561060a57816020015b6105f76119a1565b8152602001906001900390816105ef5790505b50905060005b60018054905081101561085f5760018181548110610631576106306121a6565b5b9060005260206000209060080201604051806101200160405290816000820160009054906101000a900463ffffffff1663ffffffff1663ffffffff1681526020016000820160049054906101000a900473ffffffffffffffffffffffffffffffffffffffff1673ffffffffffffffffffffffffffffffffffffffff1673ffffffffffffffffffffffffffffffffffffffff16815260200160018201548152602001600282015481526020016003820180546106eb906122f0565b80601f0160208091040260200160405190810160405280929190818152602001828054610717906122f0565b80156107645780601f1061073957610100808354040283529160200191610764565b820191906000526020600020905b81548152906001019060200180831161074757829003601f168201915b5050505050815260200160048201805461077d906122f0565b80601f01602080910402602001604051908101604052809291908181526020018280546107a9906122f0565b80156107f65780601f106107cb576101008083540402835291602001916107f6565b820191906000526020600020905b8154815290600101906020018083116107d957829003601f168201915b5050505050815260200160058201548152602001600682015481526020016007820160009054906101000a900460ff161515151581525050828281518110610841576108406121a6565b5b6020026020010181905250808061085790612322565b915050610610565b508091505090565b6000805b600180549050811015610d6357426001828154811061088d5761088c6121a6565b5b906000526020600020906008020160020154600183815481106108b3576108b26121a6565b5b9060005260206000209060080201600101546108cf919061236b565b1015610d50576001915060001515600182815481106108f1576108f06121a6565b5b906000526020600020906008020160070160009054906101000a900460ff16151514801561096857506001818154811061092e5761092d6121a6565b5b90600052602060002090600802016006015460018281548110610954576109536121a6565b5b906000526020600020906008020160050154115b15610d1257600260009054906101000a900473ffffffffffffffffffffffffffffffffffffffff1673ffffffffffffffffffffffffffffffffffffffff1663a9059cbb600183815481106109bf576109be6121a6565b5b906000526020600020906008020160000160049054906101000a900473ffffffffffffffffffffffffffffffffffffffff16600f6040518363ffffffff1660e01b8152600401610a109291906123c1565b602060405180830381600087803b158015610a2a57600080fd5b505af1158015610a3e573d6000803e3d6000fd5b505050506040513d601f19601f82011682018060405250810190610a629190612238565b506004600060018381548110610a7b57610a7a6121a6565b5b906000526020600020906008020160000160049054906101000a900473ffffffffffffffffffffffffffffffffffffffff1673ffffffffffffffffffffffffffffffffffffffff1673ffffffffffffffffffffffffffffffffffffffff1681526020019081526020016000206002016000815480929190610afb90612322565b919050555060036004600060018481548110610b1a57610b196121a6565b5b906000526020600020906008020160000160049054906101000a900473ffffffffffffffffffffffffffffffffffffffff1673ffffffffffffffffffffffffffffffffffffffff1673ffffffffffffffffffffffffffffffffffffffff168152602001908152602001600020600201541415610d1157600360009054906101000a900473ffffffffffffffffffffffffffffffffffffffff1673ffffffffffffffffffffffffffffffffffffffff1663f2fb212060018381548110610be257610be16121a6565b5b906000526020600020906008020160000160049054906101000a900473ffffffffffffffffffffffffffffffffffffffff166040518263ffffffff1660e01b8152600401610c3091906123ea565b602060405180830381600087803b158015610c4a57600080fd5b505af1158015610c5e573d6000803e3d6000fd5b505050506040513d601f19601f82011682018060405250810190610c82919061241a565b5060006004600060018481548110610c9d57610c9c6121a6565b5b906000526020600020906008020160000160049054906101000a900473ffffffffffffffffffffffffffffffffffffffff1673ffffffffffffffffffffffffffffffffffffffff1673ffffffffffffffffffffffffffffffffffffffff168152602001908152602001600020600201819055505b5b6001808281548110610d2757610d266121a6565b5b906000526020600020906008020160070160006101000a81548160ff0219169083151502179055505b8080610d5b90612322565b91505061086b565b508015610e1c57600260009054906101000a900473ffffffffffffffffffffffffffffffffffffffff1673ffffffffffffffffffffffffffffffffffffffff1663a9059cbb3360056040518363ffffffff1660e01b8152600401610dc8929190612482565b602060405180830381600087803b158015610de257600080fd5b505af1158015610df6573d6000803e3d6000fd5b505050506040513d601f19601f82011682018060405250810190610e1a9190612238565b505b50565b600260009054906101000a900473ffffffffffffffffffffffffffffffffffffffff1681565b4260018281548110610e5a57610e596121a6565b5b90600052602060002090600802016002015460018381548110610e8057610e7f6121a6565b5b906000526020600020906008020160010154610e9c919061236b565b11610edc576040517f08c379a0000000000000000000000000000000000000000000000000000000008152600401610ed3906124f7565b60405180910390fd5b6000600460003373ffffffffffffffffffffffffffffffffffffffff1673ffffffffffffffffffffffffffffffffffffffff168152602001908152602001600020905080600001600083815260200190815260200160002060009054906101000a900460ff1615610f82576040517f08c379a0000000000000000000000000000000000000000000000000000000008152600401610f7990612563565b60405180910390fd5b600181600001600084815260200190815260200160002060006101000a81548160ff0219169083151502179055508181600101819055506001808381548110610fce57610fcd6121a6565b5b90600052602060002090600802016006016000828254610fee919061236b565b92505081905550600260009054906101000a900473ffffffffffffffffffffffffffffffffffffffff1673ffffffffffffffffffffffffffffffffffffffff166323b872dd333060056040518463ffffffff1660e01b8152600401611055939291906121d5565b602060405180830381600087803b15801561106f57600080fd5b505af1158015611083573d6000803e3d6000fd5b505050506040513d601f19601f820116820180604052508101906110a79190612238565b507f17a42eaf63a29baa6efa2af7cbac339dd6c8a097184a91107cc4e91a71c48521336040516110d791906123ea565b60405180910390a15050565b6060600080600090505b60018054905081101561115b576001151560018281548110611112576111116121a6565b5b906000526020600020906008020160070160009054906101000a900460ff161515141561114857818061114490612322565b9250505b808061115390612322565b9150506110ed565b5060008167ffffffffffffffff81111561117857611177611ae4565b5b6040519080825280602002602001820160405280156111b157816020015b61119e6119a1565b8152602001906001900390816111965790505b50905060005b6001805490508110156114465760011515600182815481106111dc576111db6121a6565b5b906000526020600020906008020160070160009054906101000a900460ff16151514156114335760018181548110611217576112166121a6565b5b9060005260206000209060080201604051806101200160405290816000820160009054906101000a900463ffffffff1663ffffffff1663ffffffff1681526020016000820160049054906101000a900473ffffffffffffffffffffffffffffffffffffffff1673ffffffffffffffffffffffffffffffffffffffff1673ffffffffffffffffffffffffffffffffffffffff16815260200160018201548152602001600282015481526020016003820180546112d1906122f0565b80601f01602080910402602001604051908101604052809291908181526020018280546112fd906122f0565b801561134a5780601f1061131f5761010080835404028352916020019161134a565b820191906000526020600020905b81548152906001019060200180831161132d57829003601f168201915b50505050508152602001600482018054611363906122f0565b80601f016020809104026020016040519081016040528092919081815260200182805461138f906122f0565b80156113dc5780601f106113b1576101008083540402835291602001916113dc565b820191906000526020600020905b8154815290600101906020018083116113bf57829003601f168201915b5050505050815260200160058201548152602001600682015481526020016007820160009054906101000a900460ff161515151581525050828281518110611427576114266121a6565b5b60200260200101819052505b808061143e90612322565b9150506111b7565b50809250505090565b60046020528060005260406000206000915090508060010154908060020154905082565b6001818154811061148357600080fd5b90600052602060002090600802016000915090508060000160009054906101000a900463ffffffff16908060000160049054906101000a900473ffffffffffffffffffffffffffffffffffffffff16908060010154908060020154908060030180546114ee906122f0565b80601f016020809104026020016040519081016040528092919081815260200182805461151a906122f0565b80156115675780601f1061153c57610100808354040283529160200191611567565b820191906000526020600020905b81548152906001019060200180831161154a57829003601f168201915b50505050509080600401805461157c906122f0565b80601f01602080910402602001604051908101604052809291908181526020018280546115a8906122f0565b80156115f55780601f106115ca576101008083540402835291602001916115f5565b820191906000526020600020905b8154815290600101906020018083116115d857829003601f168201915b5050505050908060050154908060060154908060070160009054906101000a900460ff16905089565b4260018281548110611633576116326121a6565b5b90600052602060002090600802016002015460018381548110611659576116586121a6565b5b906000526020600020906008020160010154611675919061236b565b116116b5576040517f08c379a00000000000000000000000000000000000000000000000000000000081526004016116ac906124f7565b60405180910390fd5b6000600460003373ffffffffffffffffffffffffffffffffffffffff1673ffffffffffffffffffffffffffffffffffffffff168152602001908152602001600020905080600001600083815260200190815260200160002060009054906101000a900460ff161561175b576040517f08c379a000000000000000000000000000000000000000000000000000000000815260040161175290612563565b60405180910390fd5b600181600001600084815260200190815260200160002060006101000a81548160ff02191690831515021790555081816001018190555060018083815481106117a7576117a66121a6565b5b906000526020600020906008020160050160008282546117c7919061236b565b92505081905550600260009054906101000a900473ffffffffffffffffffffffffffffffffffffffff1673ffffffffffffffffffffffffffffffffffffffff166323b872dd333060056040518463ffffffff1660e01b815260040161182e939291906121d5565b602060405180830381600087803b15801561184857600080fd5b505af115801561185c573d6000803e3d6000fd5b505050506040513d601f19601f820116820180604052508101906118809190612238565b507f96bfcd230b7ff6b6fae05762edc541f5cb32225984541cf1a9c0b04bac427a5e336040516118b091906123ea565b60405180910390a15050565b6000600182815481106118d2576118d16121a6565b5b9060005260206000209060080201600501549050919050565b600360009054906101000a900473ffffffffffffffffffffffffffffffffffffffff1681565b600581565b600a81565b828054611927906122f0565b90600052602060002090601f0160209004810192826119495760008555611990565b82601f1061196257805160ff1916838001178555611990565b82800160010185558215611990579182015b8281111561198f578251825591602001919060010190611974565b5b50905061199d9190611a0b565b5090565b604051806101200160405280600063ffffffff168152602001600073ffffffffffffffffffffffffffffffffffffffff1681526020016000815260200160008152602001606081526020016060815260200160008152602001600081526020016000151581525090565b5b80821115611a24576000816000905550600101611a0c565b5090565b6000819050919050565b611a3b81611a28565b82525050565b6000602082019050611a566000830184611a32565b92915050565b6000604051905090565b600080fd5b600080fd5b611a7981611a28565b8114611a8457600080fd5b50565b600081359050611a9681611a70565b92915050565b600060208284031215611ab257611ab1611a66565b5b6000611ac084828501611a87565b91505092915050565b600080fd5b600080fd5b6000601f19601f8301169050919050565b7f4e487b7100000000000000000000000000000000000000000000000000000000600052604160045260246000fd5b611b1c82611ad3565b810181811067ffffffffffffffff82111715611b3b57611b3a611ae4565b5b80604052505050565b6000611b4e611a5c565b9050611b5a8282611b13565b919050565b600067ffffffffffffffff821115611b7a57611b79611ae4565b5b611b8382611ad3565b9050602081019050919050565b82818337600083830152505050565b6000611bb2611bad84611b5f565b611b44565b905082815260208101848484011115611bce57611bcd611ace565b5b611bd9848285611b90565b509392505050565b600082601f830112611bf657611bf5611ac9565b5b8135611c06848260208601611b9f565b91505092915050565b600080600060608486031215611c2857611c27611a66565b5b600084013567ffffffffffffffff811115611c4657611c45611a6b565b5b611c5286828701611be1565b935050602084013567ffffffffffffffff811115611c7357611c72611a6b565b5b611c7f86828701611be1565b9250506040611c9086828701611a87565b9150509250925092565b600081519050919050565b600082825260208201905092915050565b6000819050602082019050919050565b600063ffffffff82169050919050565b611cdf81611cc6565b82525050565b600073ffffffffffffffffffffffffffffffffffffffff82169050919050565b6000611d1082611ce5565b9050919050565b611d2081611d05565b82525050565b611d2f81611a28565b82525050565b600081519050919050565b600082825260208201905092915050565b60005b83811015611d6f578082015181840152602081019050611d54565b83811115611d7e576000848401525b50505050565b6000611d8f82611d35565b611d998185611d40565b9350611da9818560208601611d51565b611db281611ad3565b840191505092915050565b60008115159050919050565b611dd281611dbd565b82525050565b600061012083016000830151611df16000860182611cd6565b506020830151611e046020860182611d17565b506040830151611e176040860182611d26565b506060830151611e2a6060860182611d26565b5060808301518482036080860152611e428282611d84565b91505060a083015184820360a0860152611e5c8282611d84565b91505060c0830151611e7160c0860182611d26565b5060e0830151611e8460e0860182611d26565b50610100830151611e99610100860182611dc9565b508091505092915050565b6000611eb08383611dd8565b905092915050565b6000602082019050919050565b6000611ed082611c9a565b611eda8185611ca5565b935083602082028501611eec85611cb6565b8060005b85811015611f285784840389528151611f098582611ea4565b9450611f1483611eb8565b925060208a01995050600181019050611ef0565b50829750879550505050505092915050565b60006020820190508181036000830152611f548184611ec5565b905092915050565b6000819050919050565b6000611f81611f7c611f7784611ce5565b611f5c565b611ce5565b9050919050565b6000611f9382611f66565b9050919050565b6000611fa582611f88565b9050919050565b611fb581611f9a565b82525050565b6000602082019050611fd06000830184611fac565b92915050565b611fdf81611d05565b8114611fea57600080fd5b50565b600081359050611ffc81611fd6565b92915050565b60006020828403121561201857612017611a66565b5b600061202684828501611fed565b91505092915050565b60006040820190506120446000830185611a32565b6120516020830184611a32565b9392505050565b61206181611cc6565b82525050565b61207081611d05565b82525050565b600082825260208201905092915050565b600061209282611d35565b61209c8185612076565b93506120ac818560208601611d51565b6120b581611ad3565b840191505092915050565b6120c981611dbd565b82525050565b6000610120820190506120e5600083018c612058565b6120f2602083018b612067565b6120ff604083018a611a32565b61210c6060830189611a32565b818103608083015261211e8188612087565b905081810360a08301526121328187612087565b905061214160c0830186611a32565b61214e60e0830185611a32565b61215c6101008301846120c0565b9a9950505050505050505050565b600061217582611f88565b9050919050565b6121858161216a565b82525050565b60006020820190506121a0600083018461217c565b92915050565b7f4e487b7100000000000000000000000000000000000000000000000000000000600052603260045260246000fd5b60006060820190506121ea6000830186612067565b6121f76020830185612067565b6122046040830184611a32565b949350505050565b61221581611dbd565b811461222057600080fd5b50565b6000815190506122328161220c565b92915050565b60006020828403121561224e5761224d611a66565b5b600061225c84828501612223565b91505092915050565b7f4e487b7100000000000000000000000000000000000000000000000000000000600052601160045260246000fd5b600061229f82611cc6565b915063ffffffff8214156122b6576122b5612265565b5b600182019050919050565b7f4e487b7100000000000000000000000000000000000000000000000000000000600052602260045260246000fd5b6000600282049050600182168061230857607f821691505b6020821081141561231c5761231b6122c1565b5b50919050565b600061232d82611a28565b91507fffffffffffffffffffffffffffffffffffffffffffffffffffffffffffffffff8214156123605761235f612265565b5b600182019050919050565b600061237682611a28565b915061238183611a28565b9250827fffffffffffffffffffffffffffffffffffffffffffffffffffffffffffffffff038211156123b6576123b5612265565b5b828201905092915050565b60006040820190506123d66000830185612067565b6123e36020830184611a32565b9392505050565b60006020820190506123ff6000830184612067565b92915050565b60008151905061241481611a70565b92915050565b6000602082840312156124305761242f611a66565b5b600061243e84828501612405565b91505092915050565b6000819050919050565b600061246c61246761246284612447565b611f5c565b611a28565b9050919050565b61247c81612451565b82525050565b60006040820190506124976000830185612067565b6124a46020830184612473565b9392505050565b7f50726f706f73616c2068617320656e6465640000000000000000000000000000600082015250565b60006124e1601283612076565b91506124ec826124ab565b602082019050919050565b60006020820190508181036000830152612510816124d4565b9050919050565b7f416c726561647920766f7465642e000000000000000000000000000000000000600082015250565b600061254d600e83612076565b915061255882612517565b602082019050919050565b6000602082019050818103600083015261257c81612540565b905091905056fea2646970667358221220ce53292fea4119eb66df29104365e0eac7e147f9bcafbb1d9e8198b757a1796964736f6c6343000809003360806040523480156200001157600080fd5b5060405162001c6e38038062001c6e83398181016040528101906200003791906200045a565b81818160039080519060200190620000519291906200020d565b5080600490805190602001906200006a9291906200020d565b5050506200008233620f42406200008a60201b60201c565b50506200068b565b600073ffffffffffffffffffffffffffffffffffffffff168273ffffffffffffffffffffffffffffffffffffffff161415620000fd576040517f08c379a0000000000000000000000000000000000000000000000000000000008152600401620000f49062000540565b60405180910390fd5b62000111600083836200020360201b60201c565b80600260008282546200012591906200059b565b92505081905550806000808473ffffffffffffffffffffffffffffffffffffffff1673ffffffffffffffffffffffffffffffffffffffff16815260200190815260200160002060008282546200017c91906200059b565b925050819055508173ffffffffffffffffffffffffffffffffffffffff16600073ffffffffffffffffffffffffffffffffffffffff167fddf252ad1be2c89b69c2b068fc378daa952ba7f163c4a11628f55a4df523b3ef83604051620001e3919062000609565b60405180910390a3620001ff600083836200020860201b60201c565b5050565b505050565b505050565b8280546200021b9062000655565b90600052602060002090601f0160209004810192826200023f57600085556200028b565b82601f106200025a57805160ff19168380011785556200028b565b828001600101855582156200028b579182015b828111156200028a5782518255916020019190600101906200026d565b5b5090506200029a91906200029e565b5090565b5b80821115620002b95760008160009055506001016200029f565b5090565b6000604051905090565b600080fd5b600080fd5b600080fd5b600080fd5b6000601f19601f8301169050919050565b7f4e487b7100000000000000000000000000000000000000000000000000000000600052604160045260246000fd5b6200032682620002db565b810181811067ffffffffffffffff82111715620003485762000347620002ec565b5b80604052505050565b60006200035d620002bd565b90506200036b82826200031b565b919050565b600067ffffffffffffffff8211156200038e576200038d620002ec565b5b6200039982620002db565b9050602081019050919050565b60005b83811015620003c6578082015181840152602081019050620003a9565b83811115620003d6576000848401525b50505050565b6000620003f3620003ed8462000370565b62000351565b905082815260208101848484011115620004125762000411620002d6565b5b6200041f848285620003a6565b509392505050565b600082601f8301126200043f576200043e620002d1565b5b815162000451848260208601620003dc565b91505092915050565b60008060408385031215620004745762000473620002c7565b5b600083015167ffffffffffffffff811115620004955762000494620002cc565b5b620004a38582860162000427565b925050602083015167ffffffffffffffff811115620004c757620004c6620002cc565b5b620004d58582860162000427565b9150509250929050565b600082825260208201905092915050565b7f45524332303a206d696e7420746f20746865207a65726f206164647265737300600082015250565b600062000528601f83620004df565b91506200053582620004f0565b602082019050919050565b600060208201905081810360008301526200055b8162000519565b9050919050565b6000819050919050565b7f4e487b7100000000000000000000000000000000000000000000000000000000600052601160045260246000fd5b6000620005a88262000562565b9150620005b58362000562565b9250827fffffffffffffffffffffffffffffffffffffffffffffffffffffffffffffffff03821115620005ed57620005ec6200056c565b5b828201905092915050565b620006038162000562565b82525050565b6000602082019050620006206000830184620005f8565b92915050565b7f4e487b7100000000000000000000000000000000000000000000000000000000600052602260045260246000fd5b600060028204905060018216806200066e57607f821691505b6020821081141562000685576200068462000626565b5b50919050565b6115d3806200069b6000396000f3fe608060405234801561001057600080fd5b50600436106100b45760003560e01c80633950935111610071578063395093511461017d57806370a08231146101ad57806395d89b41146101dd578063a457c2d7146101fb578063a9059cbb1461022b578063dd62ed3e1461025b576100b4565b806306fdde03146100b9578063095ea7b3146100d757806318160ddd1461010757806323b872dd14610125578063313ce567146101555780633884d63514610173575b600080fd5b6100c161028b565b6040516100ce9190610d8f565b60405180910390f35b6100f160048036038101906100ec9190610e4a565b61031d565b6040516100fe9190610ea5565b60405180910390f35b61010f610340565b60405161011c9190610ecf565b60405180910390f35b61013f600480360381019061013a9190610eea565b61034a565b60405161014c9190610ea5565b60405180910390f35b61015d610379565b60405161016a9190610f59565b60405180910390f35b61017b610382565b005b61019760048036038101906101929190610e4a565b61047a565b6040516101a49190610ea5565b60405180910390f35b6101c760048036038101906101c29190610f74565b6104b1565b6040516101d49190610ecf565b60405180910390f35b6101e56104f9565b6040516101f29190610d8f565b60405180910390f35b61021560048036038101906102109190610e4a565b61058b565b6040516102229190610ea5565b60405180910390f35b61024560048036038101906102409190610e4a565b610602565b6040516102529190610ea5565b60405180910390f35b61027560048036038101906102709190610fa1565b610625565b6040516102829190610ecf565b60405180910390f35b60606003805461029a90611010565b80601f01602080910402602001604051908101604052809291908181526020018280546102c690611010565b80156103135780601f106102e857610100808354040283529160200191610313565b820191906000526020600020905b8154815290600101906020018083116102f657829003601f168201915b5050505050905090565b6000806103286106ac565b90506103358185856106b4565b600191505092915050565b6000600254905090565b6000806103556106ac565b905061036285828561087f565b61036d85858561090b565b60019150509392505050565b60006012905090565b60001515600560003373ffffffffffffffffffffffffffffffffffffffff1673ffffffffffffffffffffffffffffffffffffffff16815260200190815260200160002060009054906101000a900460ff16151514610415576040517f08c379a000000000000000000000000000000000000000000000000000000000815260040161040c906110b4565b60405180910390fd5b610420336064610b8c565b6001600560003373ffffffffffffffffffffffffffffffffffffffff1673ffffffffffffffffffffffffffffffffffffffff16815260200190815260200160002060006101000a81548160ff021916908315150217905550565b6000806104856106ac565b90506104a68185856104978589610625565b6104a19190611103565b6106b4565b600191505092915050565b60008060008373ffffffffffffffffffffffffffffffffffffffff1673ffffffffffffffffffffffffffffffffffffffff168152602001908152602001600020549050919050565b60606004805461050890611010565b80601f016020809104026020016040519081016040528092919081815260200182805461053490611010565b80156105815780601f1061055657610100808354040283529160200191610581565b820191906000526020600020905b81548152906001019060200180831161056457829003601f168201915b5050505050905090565b6000806105966106ac565b905060006105a48286610625565b9050838110156105e9576040517f08c379a00000000000000000000000000000000000000000000000000000000081526004016105e0906111cb565b60405180910390fd5b6105f682868684036106b4565b60019250505092915050565b60008061060d6106ac565b905061061a81858561090b565b600191505092915050565b6000600160008473ffffffffffffffffffffffffffffffffffffffff1673ffffffffffffffffffffffffffffffffffffffff16815260200190815260200160002060008373ffffffffffffffffffffffffffffffffffffffff1673ffffffffffffffffffffffffffffffffffffffff16815260200190815260200160002054905092915050565b600033905090565b600073ffffffffffffffffffffffffffffffffffffffff168373ffffffffffffffffffffffffffffffffffffffff161415610724576040517f08c379a000000000000000000000000000000000000000000000000000000000815260040161071b9061125d565b60405180910390fd5b600073ffffffffffffffffffffffffffffffffffffffff168273ffffffffffffffffffffffffffffffffffffffff161415610794576040517f08c379a000000000000000000000000000000000000000000000000000000000815260040161078b906112ef565b60405180910390fd5b80600160008573ffffffffffffffffffffffffffffffffffffffff1673ffffffffffffffffffffffffffffffffffffffff16815260200190815260200160002060008473ffffffffffffffffffffffffffffffffffffffff1673ffffffffffffffffffffffffffffffffffffffff168152602001908152602001600020819055508173ffffffffffffffffffffffffffffffffffffffff168373ffffffffffffffffffffffffffffffffffffffff167f8c5be1e5ebec7d5bd14f71427d1e84f3dd0314c0f7b2291e5b200ac8c7c3b925836040516108729190610ecf565b60405180910390a3505050565b600061088b8484610625565b90507fffffffffffffffffffffffffffffffffffffffffffffffffffffffffffffffff811461090557818110156108f7576040517f08c379a00000000000000000000000000000000000000000000000000000000081526004016108ee9061135b565b60405180910390fd5b61090484848484036106b4565b5b50505050565b600073ffffffffffffffffffffffffffffffffffffffff168373ffffffffffffffffffffffffffffffffffffffff16141561097b576040517f08c379a0000000000000000000000000000000000000000000000000000000008152600401610972906113ed565b60405180910390fd5b600073ffffffffffffffffffffffffffffffffffffffff168273ffffffffffffffffffffffffffffffffffffffff1614156109eb576040517f08c379a00000000000000000000000000000000000000000000000000000000081526004016109e29061147f565b60405180910390fd5b6109f6838383610cec565b60008060008573ffffffffffffffffffffffffffffffffffffffff1673ffffffffffffffffffffffffffffffffffffffff16815260200190815260200160002054905081811015610a7c576040517f08c379a0000000000000000000000000000000000000000000000000000000008152600401610a7390611511565b60405180910390fd5b8181036000808673ffffffffffffffffffffffffffffffffffffffff1673ffffffffffffffffffffffffffffffffffffffff16815260200190815260200160002081905550816000808573ffffffffffffffffffffffffffffffffffffffff1673ffffffffffffffffffffffffffffffffffffffff1681526020019081526020016000206000828254610b0f9190611103565b925050819055508273ffffffffffffffffffffffffffffffffffffffff168473ffffffffffffffffffffffffffffffffffffffff167fddf252ad1be2c89b69c2b068fc378daa952ba7f163c4a11628f55a4df523b3ef84604051610b739190610ecf565b60405180910390a3610b86848484610cf1565b50505050565b600073ffffffffffffffffffffffffffffffffffffffff168273ffffffffffffffffffffffffffffffffffffffff161415610bfc576040517f08c379a0000000000000000000000000000000000000000000000000000000008152600401610bf39061157d565b60405180910390fd5b610c0860008383610cec565b8060026000828254610c1a9190611103565b92505081905550806000808473ffffffffffffffffffffffffffffffffffffffff1673ffffffffffffffffffffffffffffffffffffffff1681526020019081526020016000206000828254610c6f9190611103565b925050819055508173ffffffffffffffffffffffffffffffffffffffff16600073ffffffffffffffffffffffffffffffffffffffff167fddf252ad1be2c89b69c2b068fc378daa952ba7f163c4a11628f55a4df523b3ef83604051610cd49190610ecf565b60405180910390a3610ce860008383610cf1565b5050565b505050565b505050565b600081519050919050565b600082825260208201905092915050565b60005b83811015610d30578082015181840152602081019050610d15565b83811115610d3f576000848401525b50505050565b6000601f19601f8301169050919050565b6000610d6182610cf6565b610d6b8185610d01565b9350610d7b818560208601610d12565b610d8481610d45565b840191505092915050565b60006020820190508181036000830152610da98184610d56565b905092915050565b600080fd5b600073ffffffffffffffffffffffffffffffffffffffff82169050919050565b6000610de182610db6565b9050919050565b610df181610dd6565b8114610dfc57600080fd5b50565b600081359050610e0e81610de8565b92915050565b6000819050919050565b610e2781610e14565b8114610e3257600080fd5b50565b600081359050610e4481610e1e565b92915050565b60008060408385031215610e6157610e60610db1565b5b6000610e6f85828601610dff565b9250506020610e8085828601610e35565b9150509250929050565b60008115159050919050565b610e9f81610e8a565b82525050565b6000602082019050610eba6000830184610e96565b92915050565b610ec981610e14565b82525050565b6000602082019050610ee46000830184610ec0565b92915050565b600080600060608486031215610f0357610f02610db1565b5b6000610f1186828701610dff565b9350506020610f2286828701610dff565b9250506040610f3386828701610e35565b9150509250925092565b600060ff82169050919050565b610f5381610f3d565b82525050565b6000602082019050610f6e6000830184610f4a565b92915050565b600060208284031215610f8a57610f89610db1565b5b6000610f9884828501610dff565b91505092915050565b60008060408385031215610fb857610fb7610db1565b5b6000610fc685828601610dff565b9250506020610fd785828601610dff565b9150509250929050565b7f4e487b7100000000000000000000000000000000000000000000000000000000600052602260045260246000fd5b6000600282049050600182168061102857607f821691505b6020821081141561103c5761103b610fe1565b5b50919050565b7f5468697320757365722068617320636c61696d65642061697264726f7020616c60008201527f7265616479000000000000000000000000000000000000000000000000000000602082015250565b600061109e602583610d01565b91506110a982611042565b604082019050919050565b600060208201905081810360008301526110cd81611091565b9050919050565b7f4e487b7100000000000000000000000000000000000000000000000000000000600052601160045260246000fd5b600061110e82610e14565b915061111983610e14565b9250827fffffffffffffffffffffffffffffffffffffffffffffffffffffffffffffffff0382111561114e5761114d6110d4565b5b828201905092915050565b7f45524332303a2064656372656173656420616c6c6f77616e63652062656c6f7760008201527f207a65726f000000000000000000000000000000000000000000000000000000602082015250565b60006111b5602583610d01565b91506111c082611159565b604082019050919050565b600060208201905081810360008301526111e4816111a8565b9050919050565b7f45524332303a20617070726f76652066726f6d20746865207a65726f2061646460008201527f7265737300000000000000000000000000000000000000000000000000000000602082015250565b6000611247602483610d01565b9150611252826111eb565b604082019050919050565b600060208201905081810360008301526112768161123a565b9050919050565b7f45524332303a20617070726f766520746f20746865207a65726f20616464726560008201527f7373000000000000000000000000000000000000000000000000000000000000602082015250565b60006112d9602283610d01565b91506112e48261127d565b604082019050919050565b60006020820190508181036000830152611308816112cc565b9050919050565b7f45524332303a20696e73756666696369656e7420616c6c6f77616e6365000000600082015250565b6000611345601d83610d01565b91506113508261130f565b602082019050919050565b6000602082019050818103600083015261137481611338565b9050919050565b7f45524332303a207472616e736665722066726f6d20746865207a65726f20616460008201527f6472657373000000000000000000000000000000000000000000000000000000602082015250565b60006113d7602583610d01565b91506113e28261137b565b604082019050919050565b60006020820190508181036000830152611406816113ca565b9050919050565b7f45524332303a207472616e7366657220746f20746865207a65726f206164647260008201527f6573730000000000000000000000000000000000000000000000000000000000602082015250565b6000611469602383610d01565b91506114748261140d565b604082019050919050565b600060208201905081810360008301526114988161145c565b9050919050565b7f45524332303a207472616e7366657220616d6f756e742065786365656473206260008201527f616c616e63650000000000000000000000000000000000000000000000000000602082015250565b60006114fb602683610d01565b91506115068261149f565b604082019050919050565b6000602082019050818103600083015261152a816114ee565b9050919050565b7f45524332303a206d696e7420746f20746865207a65726f206164647265737300600082015250565b6000611567601f83610d01565b915061157282611531565b602082019050919050565b600060208201905081810360008301526115968161155a565b905091905056fea2646970667358221220bee2958afc1d0e3a538fc00e61a720d4e633f5ea8bf3d7ae3fe7d325628010a264736f6c6343000809003360806040523480156200001157600080fd5b5060405162002909380380620029098339818101604052810190620000379190620002c2565b818181600090805190602001906200005192919062000075565b5080600190805190602001906200006a92919062000075565b5050505050620003ac565b828054620000839062000376565b90600052602060002090601f016020900481019282620000a75760008555620000f3565b82601f10620000c257805160ff1916838001178555620000f3565b82800160010185558215620000f3579182015b82811115620000f2578251825591602001919060010190620000d5565b5b50905062000102919062000106565b5090565b5b808211156200012157600081600090555060010162000107565b5090565b6000604051905090565b600080fd5b600080fd5b600080fd5b600080fd5b6000601f19601f8301169050919050565b7f4e487b7100000000000000000000000000000000000000000000000000000000600052604160045260246000fd5b6200018e8262000143565b810181811067ffffffffffffffff82111715620001b057620001af62000154565b5b80604052505050565b6000620001c562000125565b9050620001d3828262000183565b919050565b600067ffffffffffffffff821115620001f657620001f562000154565b5b620002018262000143565b9050602081019050919050565b60005b838110156200022e57808201518184015260208101905062000211565b838111156200023e576000848401525b50505050565b60006200025b6200025584620001d8565b620001b9565b9050828152602081018484840111156200027a57620002796200013e565b5b620002878482856200020e565b509392505050565b600082601f830112620002a757620002a662000139565b5b8151620002b984826020860162000244565b91505092915050565b60008060408385031215620002dc57620002db6200012f565b5b600083015167ffffffffffffffff811115620002fd57620002fc62000134565b5b6200030b858286016200028f565b925050602083015167ffffffffffffffff8111156200032f576200032e62000134565b5b6200033d858286016200028f565b9150509250929050565b7f4e487b7100000000000000000000000000000000000000000000000000000000600052602260045260246000fd5b600060028204905060018216806200038f57607f821691505b60208210811415620003a657620003a562000347565b5b50919050565b61254d80620003bc6000396000f3fe608060405234801561001057600080fd5b50600436106100ea5760003560e01c806370a082311161008c578063b88d4fde11610066578063b88d4fde1461025b578063c87b56dd14610277578063e985e9c5146102a7578063f2fb2120146102d7576100ea565b806370a08231146101f157806395d89b4114610221578063a22cb4651461023f576100ea565b8063095ea7b3116100c8578063095ea7b31461016d57806323b872dd1461018957806342842e0e146101a55780636352211e146101c1576100ea565b806301ffc9a7146100ef57806306fdde031461011f578063081812fc1461013d575b600080fd5b61010960048036038101906101049190611662565b610307565b60405161011691906116aa565b60405180910390f35b6101276103e9565b604051610134919061175e565b60405180910390f35b610157600480360381019061015291906117b6565b61047b565b6040516101649190611824565b60405180910390f35b6101876004803603810190610182919061186b565b6104c1565b005b6101a3600480360381019061019e91906118ab565b6105d9565b005b6101bf60048036038101906101ba91906118ab565b610639565b005b6101db60048036038101906101d691906117b6565b610659565b6040516101e89190611824565b60405180910390f35b61020b600480360381019061020691906118fe565b61070b565b604051610218919061193a565b60405180910390f35b6102296107c3565b604051610236919061175e565b60405180910390f35b61025960048036038101906102549190611981565b610855565b005b61027560048036038101906102709190611af6565b61086b565b005b610291600480360381019061028c91906117b6565b6108cd565b60405161029e919061175e565b60405180910390f35b6102c160048036038101906102bc9190611b79565b610935565b6040516102ce91906116aa565b60405180910390f35b6102f160048036038101906102ec91906118fe565b6109c9565b6040516102fe919061193a565b60405180910390f35b60007f80ac58cd000000000000000000000000000000000000000000000000000000007bffffffffffffffffffffffffffffffffffffffffffffffffffffffff1916827bffffffffffffffffffffffffffffffffffffffffffffffffffffffff191614806103d257507f5b5e139f000000000000000000000000000000000000000000000000000000007bffffffffffffffffffffffffffffffffffffffffffffffffffffffff1916827bffffffffffffffffffffffffffffffffffffffffffffffffffffffff1916145b806103e257506103e182610a39565b5b9050919050565b6060600080546103f890611be8565b80601f016020809104026020016040519081016040528092919081815260200182805461042490611be8565b80156104715780601f1061044657610100808354040283529160200191610471565b820191906000526020600020905b81548152906001019060200180831161045457829003601f168201915b5050505050905090565b600061048682610aa3565b6004600083815260200190815260200160002060009054906101000a900473ffffffffffffffffffffffffffffffffffffffff169050919050565b60006104cc82610659565b90508073ffffffffffffffffffffffffffffffffffffffff168373ffffffffffffffffffffffffffffffffffffffff16141561053d576040517f08c379a000000000000000000000000000000000000000000000000000000000815260040161053490611c8c565b60405180910390fd5b8073ffffffffffffffffffffffffffffffffffffffff1661055c610aee565b73ffffffffffffffffffffffffffffffffffffffff16148061058b575061058a81610585610aee565b610935565b5b6105ca576040517f08c379a00000000000000000000000000000000000000000000000000000000081526004016105c190611d1e565b60405180910390fd5b6105d48383610af6565b505050565b6105ea6105e4610aee565b82610baf565b610629576040517f08c379a000000000000000000000000000000000000000000000000000000000815260040161062090611db0565b60405180910390fd5b610634838383610c44565b505050565b6106548383836040518060200160405280600081525061086b565b505050565b6000806002600084815260200190815260200160002060009054906101000a900473ffffffffffffffffffffffffffffffffffffffff169050600073ffffffffffffffffffffffffffffffffffffffff168173ffffffffffffffffffffffffffffffffffffffff161415610702576040517f08c379a00000000000000000000000000000000000000000000000000000000081526004016106f990611e1c565b60405180910390fd5b80915050919050565b60008073ffffffffffffffffffffffffffffffffffffffff168273ffffffffffffffffffffffffffffffffffffffff16141561077c576040517f08c379a000000000000000000000000000000000000000000000000000000000815260040161077390611eae565b60405180910390fd5b600360008373ffffffffffffffffffffffffffffffffffffffff1673ffffffffffffffffffffffffffffffffffffffff168152602001908152602001600020549050919050565b6060600180546107d290611be8565b80601f01602080910402602001604051908101604052809291908181526020018280546107fe90611be8565b801561084b5780601f106108205761010080835404028352916020019161084b565b820191906000526020600020905b81548152906001019060200180831161082e57829003601f168201915b5050505050905090565b610867610860610aee565b8383610eab565b5050565b61087c610876610aee565b83610baf565b6108bb576040517f08c379a00000000000000000000000000000000000000000000000000000000081526004016108b290611db0565b60405180910390fd5b6108c784848484611018565b50505050565b60606108d882610aa3565b60006108e2611074565b90506000815111610902576040518060200160405280600081525061092d565b8061090c8461108b565b60405160200161091d929190611f0a565b6040516020818303038152906040525b915050919050565b6000600560008473ffffffffffffffffffffffffffffffffffffffff1673ffffffffffffffffffffffffffffffffffffffff16815260200190815260200160002060008373ffffffffffffffffffffffffffffffffffffffff1673ffffffffffffffffffffffffffffffffffffffff16815260200190815260200160002060009054906101000a900460ff16905092915050565b600080600760009054906101000a900463ffffffff1663ffffffff169050600f600760009054906101000a900463ffffffff16610a069190611f6d565b600760006101000a81548163ffffffff021916908363ffffffff160217905550610a3083826111ec565b80915050919050565b60007f01ffc9a7000000000000000000000000000000000000000000000000000000007bffffffffffffffffffffffffffffffffffffffffffffffffffffffff1916827bffffffffffffffffffffffffffffffffffffffffffffffffffffffff1916149050919050565b610aac816113c6565b610aeb576040517f08c379a0000000000000000000000000000000000000000000000000000000008152600401610ae290611e1c565b60405180910390fd5b50565b600033905090565b816004600083815260200190815260200160002060006101000a81548173ffffffffffffffffffffffffffffffffffffffff021916908373ffffffffffffffffffffffffffffffffffffffff160217905550808273ffffffffffffffffffffffffffffffffffffffff16610b6983610659565b73ffffffffffffffffffffffffffffffffffffffff167f8c5be1e5ebec7d5bd14f71427d1e84f3dd0314c0f7b2291e5b200ac8c7c3b92560405160405180910390a45050565b600080610bbb83610659565b90508073ffffffffffffffffffffffffffffffffffffffff168473ffffffffffffffffffffffffffffffffffffffff161480610bfd5750610bfc8185610935565b5b80610c3b57508373ffffffffffffffffffffffffffffffffffffffff16610c238461047b565b73ffffffffffffffffffffffffffffffffffffffff16145b91505092915050565b8273ffffffffffffffffffffffffffffffffffffffff16610c6482610659565b73ffffffffffffffffffffffffffffffffffffffff1614610cba576040517f08c379a0000000000000000000000000000000000000000000000000000000008152600401610cb190612019565b60405180910390fd5b600073ffffffffffffffffffffffffffffffffffffffff168273ffffffffffffffffffffffffffffffffffffffff161415610d2a576040517f08c379a0000000000000000000000000000000000000000000000000000000008152600401610d21906120ab565b60405180910390fd5b610d35838383611432565b610d40600082610af6565b6001600360008573ffffffffffffffffffffffffffffffffffffffff1673ffffffffffffffffffffffffffffffffffffffff1681526020019081526020016000206000828254610d9091906120cb565b925050819055506001600360008473ffffffffffffffffffffffffffffffffffffffff1673ffffffffffffffffffffffffffffffffffffffff1681526020019081526020016000206000828254610de791906120ff565b92505081905550816002600083815260200190815260200160002060006101000a81548173ffffffffffffffffffffffffffffffffffffffff021916908373ffffffffffffffffffffffffffffffffffffffff160217905550808273ffffffffffffffffffffffffffffffffffffffff168473ffffffffffffffffffffffffffffffffffffffff167fddf252ad1be2c89b69c2b068fc378daa952ba7f163c4a11628f55a4df523b3ef60405160405180910390a4610ea6838383611437565b505050565b8173ffffffffffffffffffffffffffffffffffffffff168373ffffffffffffffffffffffffffffffffffffffff161415610f1a576040517f08c379a0000000000000000000000000000000000000000000000000000000008152600401610f11906121a1565b60405180910390fd5b80600560008573ffffffffffffffffffffffffffffffffffffffff1673ffffffffffffffffffffffffffffffffffffffff16815260200190815260200160002060008473ffffffffffffffffffffffffffffffffffffffff1673ffffffffffffffffffffffffffffffffffffffff16815260200190815260200160002060006101000a81548160ff0219169083151502179055508173ffffffffffffffffffffffffffffffffffffffff168373ffffffffffffffffffffffffffffffffffffffff167f17307eab39ab6107e8899845ad3d59bd9653f200f220920489ca2b5937696c318360405161100b91906116aa565b60405180910390a3505050565b611023848484610c44565b61102f8484848461143c565b61106e576040517f08c379a000000000000000000000000000000000000000000000000000000000815260040161106590612233565b60405180910390fd5b50505050565b606060405180602001604052806000815250905090565b606060008214156110d3576040518060400160405280600181526020017f300000000000000000000000000000000000000000000000000000000000000081525090506111e7565b600082905060005b600082146111055780806110ee90612253565b915050600a826110fe91906122cb565b91506110db565b60008167ffffffffffffffff811115611121576111206119cb565b5b6040519080825280601f01601f1916602001820160405280156111535781602001600182028036833780820191505090505b5090505b600085146111e05760018261116c91906120cb565b9150600a8561117b91906122fc565b603061118791906120ff565b60f81b81838151811061119d5761119c61232d565b5b60200101907effffffffffffffffffffffffffffffffffffffffffffffffffffffffffffff1916908160001a905350600a856111d991906122cb565b9450611157565b8093505050505b919050565b600073ffffffffffffffffffffffffffffffffffffffff168273ffffffffffffffffffffffffffffffffffffffff16141561125c576040517f08c379a0000000000000000000000000000000000000000000000000000000008152600401611253906123a8565b60405180910390fd5b611265816113c6565b156112a5576040517f08c379a000000000000000000000000000000000000000000000000000000000815260040161129c90612414565b60405180910390fd5b6112b160008383611432565b6001600360008473ffffffffffffffffffffffffffffffffffffffff1673ffffffffffffffffffffffffffffffffffffffff168152602001908152602001600020600082825461130191906120ff565b92505081905550816002600083815260200190815260200160002060006101000a81548173ffffffffffffffffffffffffffffffffffffffff021916908373ffffffffffffffffffffffffffffffffffffffff160217905550808273ffffffffffffffffffffffffffffffffffffffff16600073ffffffffffffffffffffffffffffffffffffffff167fddf252ad1be2c89b69c2b068fc378daa952ba7f163c4a11628f55a4df523b3ef60405160405180910390a46113c260008383611437565b5050565b60008073ffffffffffffffffffffffffffffffffffffffff166002600084815260200190815260200160002060009054906101000a900473ffffffffffffffffffffffffffffffffffffffff1673ffffffffffffffffffffffffffffffffffffffff1614159050919050565b505050565b505050565b600061145d8473ffffffffffffffffffffffffffffffffffffffff166115d3565b156115c6578373ffffffffffffffffffffffffffffffffffffffff1663150b7a02611486610aee565b8786866040518563ffffffff1660e01b81526004016114a89493929190612489565b602060405180830381600087803b1580156114c257600080fd5b505af19250505080156114f357506040513d601f19601f820116820180604052508101906114f091906124ea565b60015b611576573d8060008114611523576040519150601f19603f3d011682016040523d82523d6000602084013e611528565b606091505b5060008151141561156e576040517f08c379a000000000000000000000000000000000000000000000000000000000815260040161156590612233565b60405180910390fd5b805181602001fd5b63150b7a0260e01b7bffffffffffffffffffffffffffffffffffffffffffffffffffffffff1916817bffffffffffffffffffffffffffffffffffffffffffffffffffffffff1916149150506115cb565b600190505b949350505050565b6000808273ffffffffffffffffffffffffffffffffffffffff163b119050919050565b6000604051905090565b600080fd5b600080fd5b60007fffffffff0000000000000000000000000000000000000000000000000000000082169050919050565b61163f8161160a565b811461164a57600080fd5b50565b60008135905061165c81611636565b92915050565b60006020828403121561167857611677611600565b5b60006116868482850161164d565b91505092915050565b60008115159050919050565b6116a48161168f565b82525050565b60006020820190506116bf600083018461169b565b92915050565b600081519050919050565b600082825260208201905092915050565b60005b838110156116ff5780820151818401526020810190506116e4565b8381111561170e576000848401525b50505050565b6000601f19601f8301169050919050565b6000611730826116c5565b61173a81856116d0565b935061174a8185602086016116e1565b61175381611714565b840191505092915050565b600060208201905081810360008301526117788184611725565b905092915050565b6000819050919050565b61179381611780565b811461179e57600080fd5b50565b6000813590506117b08161178a565b92915050565b6000602082840312156117cc576117cb611600565b5b60006117da848285016117a1565b91505092915050565b600073ffffffffffffffffffffffffffffffffffffffff82169050919050565b600061180e826117e3565b9050919050565b61181e81611803565b82525050565b60006020820190506118396000830184611815565b92915050565b61184881611803565b811461185357600080fd5b50565b6000813590506118658161183f565b92915050565b6000806040838503121561188257611881611600565b5b600061189085828601611856565b92505060206118a1858286016117a1565b9150509250929050565b6000806000606084860312156118c4576118c3611600565b5b60006118d286828701611856565b93505060206118e386828701611856565b92505060406118f4868287016117a1565b9150509250925092565b60006020828403121561191457611913611600565b5b600061192284828501611856565b91505092915050565b61193481611780565b82525050565b600060208201905061194f600083018461192b565b92915050565b61195e8161168f565b811461196957600080fd5b50565b60008135905061197b81611955565b92915050565b6000806040838503121561199857611997611600565b5b60006119a685828601611856565b92505060206119b78582860161196c565b9150509250929050565b600080fd5b600080fd5b7f4e487b7100000000000000000000000000000000000000000000000000000000600052604160045260246000fd5b611a0382611714565b810181811067ffffffffffffffff82111715611a2257611a216119cb565b5b80604052505050565b6000611a356115f6565b9050611a4182826119fa565b919050565b600067ffffffffffffffff821115611a6157611a606119cb565b5b611a6a82611714565b9050602081019050919050565b82818337600083830152505050565b6000611a99611a9484611a46565b611a2b565b905082815260208101848484011115611ab557611ab46119c6565b5b611ac0848285611a77565b509392505050565b600082601f830112611add57611adc6119c1565b5b8135611aed848260208601611a86565b91505092915050565b60008060008060808587031215611b1057611b0f611600565b5b6000611b1e87828801611856565b9450506020611b2f87828801611856565b9350506040611b40878288016117a1565b925050606085013567ffffffffffffffff811115611b6157611b60611605565b5b611b6d87828801611ac8565b91505092959194509250565b60008060408385031215611b9057611b8f611600565b5b6000611b9e85828601611856565b9250506020611baf85828601611856565b9150509250929050565b7f4e487b7100000000000000000000000000000000000000000000000000000000600052602260045260246000fd5b60006002820490506001821680611c0057607f821691505b60208210811415611c1457611c13611bb9565b5b50919050565b7f4552433732313a20617070726f76616c20746f2063757272656e74206f776e6560008201527f7200000000000000000000000000000000000000000000000000000000000000602082015250565b6000611c766021836116d0565b9150611c8182611c1a565b604082019050919050565b60006020820190508181036000830152611ca581611c69565b9050919050565b7f4552433732313a20617070726f76652063616c6c6572206973206e6f7420746f60008201527f6b656e206f776e6572206e6f7220617070726f76656420666f7220616c6c0000602082015250565b6000611d08603e836116d0565b9150611d1382611cac565b604082019050919050565b60006020820190508181036000830152611d3781611cfb565b9050919050565b7f4552433732313a2063616c6c6572206973206e6f7420746f6b656e206f776e6560008201527f72206e6f7220617070726f766564000000000000000000000000000000000000602082015250565b6000611d9a602e836116d0565b9150611da582611d3e565b604082019050919050565b60006020820190508181036000830152611dc981611d8d565b9050919050565b7f4552433732313a20696e76616c696420746f6b656e2049440000000000000000600082015250565b6000611e066018836116d0565b9150611e1182611dd0565b602082019050919050565b60006020820190508181036000830152611e3581611df9565b9050919050565b7f4552433732313a2061646472657373207a65726f206973206e6f74206120766160008201527f6c6964206f776e65720000000000000000000000000000000000000000000000602082015250565b6000611e986029836116d0565b9150611ea382611e3c565b604082019050919050565b60006020820190508181036000830152611ec781611e8b565b9050919050565b600081905092915050565b6000611ee4826116c5565b611eee8185611ece565b9350611efe8185602086016116e1565b80840191505092915050565b6000611f168285611ed9565b9150611f228284611ed9565b91508190509392505050565b600063ffffffff82169050919050565b7f4e487b7100000000000000000000000000000000000000000000000000000000600052601160045260246000fd5b6000611f7882611f2e565b9150611f8383611f2e565b92508263ffffffff03821115611f9c57611f9b611f3e565b5b828201905092915050565b7f4552433732313a207472616e736665722066726f6d20696e636f72726563742060008201527f6f776e6572000000000000000000000000000000000000000000000000000000602082015250565b60006120036025836116d0565b915061200e82611fa7565b604082019050919050565b6000602082019050818103600083015261203281611ff6565b9050919050565b7f4552433732313a207472616e7366657220746f20746865207a65726f2061646460008201527f7265737300000000000000000000000000000000000000000000000000000000602082015250565b60006120956024836116d0565b91506120a082612039565b604082019050919050565b600060208201905081810360008301526120c481612088565b9050919050565b60006120d682611780565b91506120e183611780565b9250828210156120f4576120f3611f3e565b5b828203905092915050565b600061210a82611780565b915061211583611780565b9250827fffffffffffffffffffffffffffffffffffffffffffffffffffffffffffffffff0382111561214a57612149611f3e565b5b828201905092915050565b7f4552433732313a20617070726f766520746f2063616c6c657200000000000000600082015250565b600061218b6019836116d0565b915061219682612155565b602082019050919050565b600060208201905081810360008301526121ba8161217e565b9050919050565b7f4552433732313a207472616e7366657220746f206e6f6e20455243373231526560008201527f63656976657220696d706c656d656e7465720000000000000000000000000000602082015250565b600061221d6032836116d0565b9150612228826121c1565b604082019050919050565b6000602082019050818103600083015261224c81612210565b9050919050565b600061225e82611780565b91507fffffffffffffffffffffffffffffffffffffffffffffffffffffffffffffffff82141561229157612290611f3e565b5b600182019050919050565b7f4e487b7100000000000000000000000000000000000000000000000000000000600052601260045260246000fd5b60006122d682611780565b91506122e183611780565b9250826122f1576122f061229c565b5b828204905092915050565b600061230782611780565b915061231283611780565b9250826123225761232161229c565b5b828206905092915050565b7f4e487b7100000000000000000000000000000000000000000000000000000000600052603260045260246000fd5b7f4552433732313a206d696e7420746f20746865207a65726f2061646472657373600082015250565b60006123926020836116d0565b915061239d8261235c565b602082019050919050565b600060208201905081810360008301526123c181612385565b9050919050565b7f4552433732313a20746f6b656e20616c7265616479206d696e74656400000000600082015250565b60006123fe601c836116d0565b9150612409826123c8565b602082019050919050565b6000602082019050818103600083015261242d816123f1565b9050919050565b600081519050919050565b600082825260208201905092915050565b600061245b82612434565b612465818561243f565b93506124758185602086016116e1565b61247e81611714565b840191505092915050565b600060808201905061249e6000830187611815565b6124ab6020830186611815565b6124b8604083018561192b565b81810360608301526124ca8184612450565b905095945050505050565b6000815190506124e481611636565b92915050565b600060208284031215612500576124ff611600565b5b600061250e848285016124d5565b9150509291505056fea2646970667358221220d173ea745edfd2a10ca754de95ec5543103dcc18864b897d6f1c5a49f8562c7464736f6c63430008090033",
  "linkReferences": {},
  "deployedLinkReferences": {}
}